{
  "_format": "hh-sol-artifact-1",
  "contractName": "newCrowdSale",
  "sourceName": "contracts/newCrowdSale.sol",
  "abi": [
    {
      "inputs": [
        {
          "internalType": "uint256",
          "name": "_rate",
          "type": "uint256"
        },
        {
          "internalType": "address",
          "name": "_token",
          "type": "address"
        }
      ],
      "stateMutability": "nonpayable",
      "type": "constructor"
    },
    {
      "inputs": [
        {
          "internalType": "address",
          "name": "owner",
          "type": "address"
        }
      ],
      "name": "OwnableInvalidOwner",
      "type": "error"
    },
    {
      "inputs": [
        {
          "internalType": "address",
          "name": "account",
          "type": "address"
        }
      ],
      "name": "OwnableUnauthorizedAccount",
      "type": "error"
    },
    {
      "anonymous": false,
      "inputs": [
        {
          "indexed": false,
          "internalType": "uint256",
          "name": "amount",
          "type": "uint256"
        }
      ],
      "name": "ETHwithdraw",
      "type": "event"
    },
    {
      "anonymous": false,
      "inputs": [
        {
          "indexed": true,
          "internalType": "address",
          "name": "previousOwner",
          "type": "address"
        },
        {
          "indexed": true,
          "internalType": "address",
          "name": "newOwner",
          "type": "address"
        }
      ],
      "name": "OwnershipTransferred",
      "type": "event"
    },
    {
      "anonymous": false,
      "inputs": [
        {
          "indexed": false,
          "internalType": "uint256",
          "name": "newRate",
          "type": "uint256"
        }
      ],
      "name": "RateChange",
      "type": "event"
    },
    {
      "anonymous": false,
      "inputs": [
        {
          "indexed": true,
          "internalType": "address",
          "name": "buyer",
          "type": "address"
        },
        {
          "indexed": false,
          "internalType": "uint256",
          "name": "tokens",
          "type": "uint256"
        }
      ],
      "name": "TokenPurchased",
      "type": "event"
    },
    {
      "anonymous": false,
      "inputs": [
        {
          "indexed": false,
          "internalType": "uint256",
          "name": "totalETH",
          "type": "uint256"
        }
      ],
      "name": "TokensWithdraw",
      "type": "event"
    },
    {
      "anonymous": false,
      "inputs": [
        {
          "indexed": false,
          "internalType": "uint256",
          "name": "nwtTokens",
          "type": "uint256"
        }
      ],
      "name": "UnsoldToken",
      "type": "event"
    },
    {
      "inputs": [],
      "name": "buyTokens",
      "outputs": [],
      "stateMutability": "payable",
      "type": "function"
    },
    {
      "inputs": [],
      "name": "owner",
      "outputs": [
        {
          "internalType": "address",
          "name": "",
          "type": "address"
        }
      ],
      "stateMutability": "view",
      "type": "function"
    },
    {
      "inputs": [],
      "name": "rate",
      "outputs": [
        {
          "internalType": "uint256",
          "name": "",
          "type": "uint256"
        }
      ],
      "stateMutability": "view",
      "type": "function"
    },
    {
      "inputs": [],
      "name": "renounceOwnership",
      "outputs": [],
      "stateMutability": "nonpayable",
      "type": "function"
    },
    {
      "inputs": [
        {
          "internalType": "uint256",
          "name": "newRate",
          "type": "uint256"
        }
      ],
      "name": "setRate",
      "outputs": [],
      "stateMutability": "nonpayable",
      "type": "function"
    },
    {
      "inputs": [],
      "name": "token",
      "outputs": [
        {
          "internalType": "contract IERC20",
          "name": "",
          "type": "address"
        }
      ],
      "stateMutability": "view",
      "type": "function"
    },
    {
      "inputs": [
        {
          "internalType": "address",
          "name": "newOwner",
          "type": "address"
        }
      ],
      "name": "transferOwnership",
      "outputs": [],
      "stateMutability": "nonpayable",
      "type": "function"
    },
    {
      "inputs": [],
      "name": "withdrawETH",
      "outputs": [],
      "stateMutability": "nonpayable",
      "type": "function"
    },
    {
      "inputs": [],
      "name": "withdrawUnsoldToken",
      "outputs": [],
      "stateMutability": "nonpayable",
      "type": "function"
    },
    {
      "stateMutability": "payable",
      "type": "receive"
    }
  ],
  "bytecode": "0x60806040523480156200001157600080fd5b506040516200120938038062001209833981810160405281019062000037919062000330565b33600073ffffffffffffffffffffffffffffffffffffffff168173ffffffffffffffffffffffffffffffffffffffff1603620000ad5760006040517f1e4fbdf7000000000000000000000000000000000000000000000000000000008152600401620000a4919062000388565b60405180910390fd5b620000be81620001c760201b60201c565b506000821162000105576040517f08c379a0000000000000000000000000000000000000000000000000000000008152600401620000fc9062000406565b60405180910390fd5b600073ffffffffffffffffffffffffffffffffffffffff168173ffffffffffffffffffffffffffffffffffffffff160362000177576040517f08c379a00000000000000000000000000000000000000000000000000000000081526004016200016e9062000478565b60405180910390fd5b80600260006101000a81548173ffffffffffffffffffffffffffffffffffffffff021916908373ffffffffffffffffffffffffffffffffffffffff1602179055508160018190555050506200049a565b60008060009054906101000a900473ffffffffffffffffffffffffffffffffffffffff169050816000806101000a81548173ffffffffffffffffffffffffffffffffffffffff021916908373ffffffffffffffffffffffffffffffffffffffff1602179055508173ffffffffffffffffffffffffffffffffffffffff168173ffffffffffffffffffffffffffffffffffffffff167f8be0079c531659141344cd1fd0a4f28419497f9722a3daafe3b4186f6b6457e060405160405180910390a35050565b600080fd5b6000819050919050565b620002a58162000290565b8114620002b157600080fd5b50565b600081519050620002c5816200029a565b92915050565b600073ffffffffffffffffffffffffffffffffffffffff82169050919050565b6000620002f882620002cb565b9050919050565b6200030a81620002eb565b81146200031657600080fd5b50565b6000815190506200032a81620002ff565b92915050565b600080604083850312156200034a57620003496200028b565b5b60006200035a85828601620002b4565b92505060206200036d8582860162000319565b9150509250929050565b6200038281620002eb565b82525050565b60006020820190506200039f600083018462000377565b92915050565b600082825260208201905092915050565b7f52617465206d757374206265203e203000000000000000000000000000000000600082015250565b6000620003ee601083620003a5565b9150620003fb82620003b6565b602082019050919050565b600060208201905081810360008301526200042181620003df565b9050919050565b7f496e76616c696420746f6b656e20616464726573730000000000000000000000600082015250565b600062000460601583620003a5565b91506200046d8262000428565b602082019050919050565b60006020820190508181036000830152620004938162000451565b9050919050565b610d5f80620004aa6000396000f3fe60806040526004361061008a5760003560e01c8063a771994911610059578063a771994914610134578063d0febe4c1461014b578063e086e5ec14610155578063f2fde38b1461016c578063fc0c546a1461019557610099565b80632c4e722e1461009e57806334fcf437146100c9578063715018a6146100f25780638da5cb5b1461010957610099565b36610099576100976101c0565b005b600080fd5b3480156100aa57600080fd5b506100b36103a2565b6040516100c091906108eb565b60405180910390f35b3480156100d557600080fd5b506100f060048036038101906100eb9190610937565b6103a8565b005b3480156100fe57600080fd5b506101076103f1565b005b34801561011557600080fd5b5061011e610405565b60405161012b91906109a5565b60405180910390f35b34801561014057600080fd5b5061014961042e565b005b6101536101c0565b005b34801561016157600080fd5b5061016a6105fb565b005b34801561017857600080fd5b50610193600480360381019061018e91906109ec565b6106d3565b005b3480156101a157600080fd5b506101aa610759565b6040516101b79190610a78565b60405180910390f35b6000600154346101d09190610ac2565b905080600260009054906101000a900473ffffffffffffffffffffffffffffffffffffffff1673ffffffffffffffffffffffffffffffffffffffff166370a08231306040518263ffffffff1660e01b815260040161022e91906109a5565b602060405180830381865afa15801561024b573d6000803e3d6000fd5b505050506040513d601f19601f8201168201806040525081019061026f9190610b19565b10156102b0576040517f08c379a00000000000000000000000000000000000000000000000000000000081526004016102a790610ba3565b60405180910390fd5b600260009054906101000a900473ffffffffffffffffffffffffffffffffffffffff1673ffffffffffffffffffffffffffffffffffffffff1663a9059cbb33836040518363ffffffff1660e01b815260040161030d929190610bc3565b6020604051808303816000875af115801561032c573d6000803e3d6000fd5b505050506040513d601f19601f820116820180604052508101906103509190610c24565b503373ffffffffffffffffffffffffffffffffffffffff167f55c18555197c6574627cf460c66073d10aa05d412468800b7b71feeaf82ea92d8260405161039791906108eb565b60405180910390a250565b60015481565b6103b061077f565b806001819055507f0b6eb270e68ec2b65cffce354325dcd6cb2449e0e8fec1184cd58da0c7b0344b816040516103e691906108eb565b60405180910390a150565b6103f961077f565b6104036000610806565b565b60008060009054906101000a900473ffffffffffffffffffffffffffffffffffffffff16905090565b61043661077f565b6000600260009054906101000a900473ffffffffffffffffffffffffffffffffffffffff1673ffffffffffffffffffffffffffffffffffffffff166370a08231306040518263ffffffff1660e01b815260040161049391906109a5565b602060405180830381865afa1580156104b0573d6000803e3d6000fd5b505050506040513d601f19601f820116820180604052508101906104d49190610b19565b905060008111610519576040517f08c379a000000000000000000000000000000000000000000000000000000000815260040161051090610c9d565b60405180910390fd5b600260009054906101000a900473ffffffffffffffffffffffffffffffffffffffff1673ffffffffffffffffffffffffffffffffffffffff1663a9059cbb61055f610405565b836040518363ffffffff1660e01b815260040161057d929190610bc3565b6020604051808303816000875af115801561059c573d6000803e3d6000fd5b505050506040513d601f19601f820116820180604052508101906105c09190610c24565b507fc7f7ea83e8ce56c891354de46a291dc1c4aeccfdecd7fb79ac0fb70308820168816040516105f091906108eb565b60405180910390a150565b61060361077f565b60004790506000811161064b576040517f08c379a000000000000000000000000000000000000000000000000000000000815260040161064290610d09565b60405180910390fd5b610653610405565b73ffffffffffffffffffffffffffffffffffffffff166108fc829081150290604051600060405180830381858888f19350505050158015610698573d6000803e3d6000fd5b507f23c136ea4446a57e86f18525d601ba59cd1f729c5d983d9c622af9c5eb45b2c5816040516106c891906108eb565b60405180910390a150565b6106db61077f565b600073ffffffffffffffffffffffffffffffffffffffff168173ffffffffffffffffffffffffffffffffffffffff160361074d5760006040517f1e4fbdf700000000000000000000000000000000000000000000000000000000815260040161074491906109a5565b60405180910390fd5b61075681610806565b50565b600260009054906101000a900473ffffffffffffffffffffffffffffffffffffffff1681565b6107876108ca565b73ffffffffffffffffffffffffffffffffffffffff166107a5610405565b73ffffffffffffffffffffffffffffffffffffffff1614610804576107c86108ca565b6040517f118cdaa70000000000000000000000000000000000000000000000000000000081526004016107fb91906109a5565b60405180910390fd5b565b60008060009054906101000a900473ffffffffffffffffffffffffffffffffffffffff169050816000806101000a81548173ffffffffffffffffffffffffffffffffffffffff021916908373ffffffffffffffffffffffffffffffffffffffff1602179055508173ffffffffffffffffffffffffffffffffffffffff168173ffffffffffffffffffffffffffffffffffffffff167f8be0079c531659141344cd1fd0a4f28419497f9722a3daafe3b4186f6b6457e060405160405180910390a35050565b600033905090565b6000819050919050565b6108e5816108d2565b82525050565b600060208201905061090060008301846108dc565b92915050565b600080fd5b610914816108d2565b811461091f57600080fd5b50565b6000813590506109318161090b565b92915050565b60006020828403121561094d5761094c610906565b5b600061095b84828501610922565b91505092915050565b600073ffffffffffffffffffffffffffffffffffffffff82169050919050565b600061098f82610964565b9050919050565b61099f81610984565b82525050565b60006020820190506109ba6000830184610996565b92915050565b6109c981610984565b81146109d457600080fd5b50565b6000813590506109e6816109c0565b92915050565b600060208284031215610a0257610a01610906565b5b6000610a10848285016109d7565b91505092915050565b6000819050919050565b6000610a3e610a39610a3484610964565b610a19565b610964565b9050919050565b6000610a5082610a23565b9050919050565b6000610a6282610a45565b9050919050565b610a7281610a57565b82525050565b6000602082019050610a8d6000830184610a69565b92915050565b7f4e487b7100000000000000000000000000000000000000000000000000000000600052601160045260246000fd5b6000610acd826108d2565b9150610ad8836108d2565b9250828202610ae6816108d2565b91508282048414831517610afd57610afc610a93565b5b5092915050565b600081519050610b138161090b565b92915050565b600060208284031215610b2f57610b2e610906565b5b6000610b3d84828501610b04565b91505092915050565b600082825260208201905092915050565b7f496e73756666696369656e7420746f6b656e7320696e20636f6e747261637400600082015250565b6000610b8d601f83610b46565b9150610b9882610b57565b602082019050919050565b60006020820190508181036000830152610bbc81610b80565b9050919050565b6000604082019050610bd86000830185610996565b610be560208301846108dc565b9392505050565b60008115159050919050565b610c0181610bec565b8114610c0c57600080fd5b50565b600081519050610c1e81610bf8565b92915050565b600060208284031215610c3a57610c39610906565b5b6000610c4884828501610c0f565b91505092915050565b7f4e6f20756e736f6c6420746f6b656e7320746f20776974686472617700000000600082015250565b6000610c87601c83610b46565b9150610c9282610c51565b602082019050919050565b60006020820190508181036000830152610cb681610c7a565b9050919050565b7f496e73756666696369656e742045544800000000000000000000000000000000600082015250565b6000610cf3601083610b46565b9150610cfe82610cbd565b602082019050919050565b60006020820190508181036000830152610d2281610ce6565b905091905056fea26469706673582212200f91e426e20e1344bee77d117cf45bdf5db789ddca67055649d2e596fac3160f64736f6c63430008140033",
  "linkReferences": {},
  "deployedLinkReferences": {}
}