{
  "_format": "hh-sol-artifact-1",
  "contractName": "newCrowdSale",
  "sourceName": "contracts/newCrowdSale.sol",
  "abi": [
    {
      "inputs": [
        {
          "internalType": "uint256",
          "name": "_rate",
          "type": "uint256"
        },
        {
          "internalType": "address",
          "name": "_token",
          "type": "address"
        },
        {
          "internalType": "address",
          "name": "_usdt",
          "type": "address"
        }
      ],
      "stateMutability": "nonpayable",
      "type": "constructor"
    },
    {
      "inputs": [
        {
          "internalType": "address",
          "name": "owner",
          "type": "address"
        }
      ],
      "name": "OwnableInvalidOwner",
      "type": "error"
    },
    {
      "inputs": [
        {
          "internalType": "address",
          "name": "account",
          "type": "address"
        }
      ],
      "name": "OwnableUnauthorizedAccount",
      "type": "error"
    },
    {
      "anonymous": false,
      "inputs": [
        {
          "indexed": true,
          "internalType": "address",
          "name": "previousOwner",
          "type": "address"
        },
        {
          "indexed": true,
          "internalType": "address",
          "name": "newOwner",
          "type": "address"
        }
      ],
      "name": "OwnershipTransferred",
      "type": "event"
    },
    {
      "anonymous": false,
      "inputs": [
        {
          "indexed": false,
          "internalType": "uint256",
          "name": "newRate",
          "type": "uint256"
        }
      ],
      "name": "RateChange",
      "type": "event"
    },
    {
      "anonymous": false,
      "inputs": [
        {
          "indexed": true,
          "internalType": "address",
          "name": "buyer",
          "type": "address"
        },
        {
          "indexed": false,
          "internalType": "uint256",
          "name": "usdtAmount",
          "type": "uint256"
        },
        {
          "indexed": false,
          "internalType": "uint256",
          "name": "tokensAmount",
          "type": "uint256"
        }
      ],
      "name": "TokenPurchased",
      "type": "event"
    },
    {
      "anonymous": false,
      "inputs": [
        {
          "indexed": false,
          "internalType": "uint256",
          "name": "totalUSDT",
          "type": "uint256"
        }
      ],
      "name": "TokensWithdraw",
      "type": "event"
    },
    {
      "anonymous": false,
      "inputs": [
        {
          "indexed": false,
          "internalType": "uint256",
          "name": "amount",
          "type": "uint256"
        }
      ],
      "name": "USDTwithdraw",
      "type": "event"
    },
    {
      "anonymous": false,
      "inputs": [
        {
          "indexed": false,
          "internalType": "uint256",
          "name": "nwtTokens",
          "type": "uint256"
        }
      ],
      "name": "UnsoldToken",
      "type": "event"
    },
    {
      "inputs": [],
      "name": "USDT",
      "outputs": [
        {
          "internalType": "contract IERC20",
          "name": "",
          "type": "address"
        }
      ],
      "stateMutability": "view",
      "type": "function"
    },
    {
      "inputs": [
        {
          "internalType": "uint256",
          "name": "usdtAmount",
          "type": "uint256"
        }
      ],
      "name": "buyTokens",
      "outputs": [],
      "stateMutability": "nonpayable",
      "type": "function"
    },
    {
      "inputs": [],
      "name": "owner",
      "outputs": [
        {
          "internalType": "address",
          "name": "",
          "type": "address"
        }
      ],
      "stateMutability": "view",
      "type": "function"
    },
    {
      "inputs": [],
      "name": "rate",
      "outputs": [
        {
          "internalType": "uint256",
          "name": "",
          "type": "uint256"
        }
      ],
      "stateMutability": "view",
      "type": "function"
    },
    {
      "inputs": [],
      "name": "renounceOwnership",
      "outputs": [],
      "stateMutability": "nonpayable",
      "type": "function"
    },
    {
      "inputs": [
        {
          "internalType": "uint256",
          "name": "newRate",
          "type": "uint256"
        }
      ],
      "name": "setRate",
      "outputs": [],
      "stateMutability": "nonpayable",
      "type": "function"
    },
    {
      "inputs": [],
      "name": "token",
      "outputs": [
        {
          "internalType": "contract IERC20",
          "name": "",
          "type": "address"
        }
      ],
      "stateMutability": "view",
      "type": "function"
    },
    {
      "inputs": [
        {
          "internalType": "address",
          "name": "newOwner",
          "type": "address"
        }
      ],
      "name": "transferOwnership",
      "outputs": [],
      "stateMutability": "nonpayable",
      "type": "function"
    },
    {
      "inputs": [],
      "name": "withdrawUSDT",
      "outputs": [],
      "stateMutability": "nonpayable",
      "type": "function"
    },
    {
      "inputs": [],
      "name": "withdrawUnsoldToken",
      "outputs": [],
      "stateMutability": "nonpayable",
      "type": "function"
    }
  ],
  "bytecode": "0x60806040523480156200001157600080fd5b506040516200152338038062001523833981810160405281019062000037919062000372565b33600073ffffffffffffffffffffffffffffffffffffffff168173ffffffffffffffffffffffffffffffffffffffff1603620000ad5760006040517f1e4fbdf7000000000000000000000000000000000000000000000000000000008152600401620000a49190620003df565b60405180910390fd5b620000be816200020960201b60201c565b506000831162000105576040517f08c379a0000000000000000000000000000000000000000000000000000000008152600401620000fc906200045d565b60405180910390fd5b600073ffffffffffffffffffffffffffffffffffffffff168273ffffffffffffffffffffffffffffffffffffffff160362000177576040517f08c379a00000000000000000000000000000000000000000000000000000000081526004016200016e90620004cf565b60405180910390fd5b81600260006101000a81548173ffffffffffffffffffffffffffffffffffffffff021916908373ffffffffffffffffffffffffffffffffffffffff16021790555080600360006101000a81548173ffffffffffffffffffffffffffffffffffffffff021916908373ffffffffffffffffffffffffffffffffffffffff16021790555082600181905550505050620004f1565b60008060009054906101000a900473ffffffffffffffffffffffffffffffffffffffff169050816000806101000a81548173ffffffffffffffffffffffffffffffffffffffff021916908373ffffffffffffffffffffffffffffffffffffffff1602179055508173ffffffffffffffffffffffffffffffffffffffff168173ffffffffffffffffffffffffffffffffffffffff167f8be0079c531659141344cd1fd0a4f28419497f9722a3daafe3b4186f6b6457e060405160405180910390a35050565b600080fd5b6000819050919050565b620002e781620002d2565b8114620002f357600080fd5b50565b6000815190506200030781620002dc565b92915050565b600073ffffffffffffffffffffffffffffffffffffffff82169050919050565b60006200033a826200030d565b9050919050565b6200034c816200032d565b81146200035857600080fd5b50565b6000815190506200036c8162000341565b92915050565b6000806000606084860312156200038e576200038d620002cd565b5b60006200039e86828701620002f6565b9350506020620003b1868287016200035b565b9250506040620003c4868287016200035b565b9150509250925092565b620003d9816200032d565b82525050565b6000602082019050620003f66000830184620003ce565b92915050565b600082825260208201905092915050565b7f52617465206d757374206265203e203000000000000000000000000000000000600082015250565b600062000445601083620003fc565b915062000452826200040d565b602082019050919050565b60006020820190508181036000830152620004788162000436565b9050919050565b7f496e76616c696420746f6b656e20616464726573730000000000000000000000600082015250565b6000620004b7601583620003fc565b9150620004c4826200047f565b602082019050919050565b60006020820190508181036000830152620004ea81620004a8565b9050919050565b61102280620005016000396000f3fe608060405234801561001057600080fd5b506004361061009e5760003560e01c80638da5cb5b116100665780638da5cb5b1461010d578063a77199491461012b578063c54e44eb14610135578063f2fde38b14610153578063fc0c546a1461016f5761009e565b80632c4e722e146100a357806334fcf437146100c15780633610724e146100dd578063362e496b146100f9578063715018a614610103575b600080fd5b6100ab61018d565b6040516100b89190610abc565b60405180910390f35b6100db60048036038101906100d69190610b08565b610193565b005b6100f760048036038101906100f29190610b08565b6101dc565b005b6101016104a7565b005b61010b610674565b005b610115610688565b6040516101229190610b76565b60405180910390f35b6101336106b1565b005b61013d61087e565b60405161014a9190610bf0565b60405180910390f35b61016d60048036038101906101689190610c37565b6108a4565b005b61017761092a565b6040516101849190610bf0565b60405180910390f35b60015481565b61019b610950565b806001819055507f0b6eb270e68ec2b65cffce354325dcd6cb2449e0e8fec1184cd58da0c7b0344b816040516101d19190610abc565b60405180910390a150565b6000811161021f576040517f08c379a000000000000000000000000000000000000000000000000000000000815260040161021690610ce7565b60405180910390fd5b60006001548261022f9190610d36565b905080600260009054906101000a900473ffffffffffffffffffffffffffffffffffffffff1673ffffffffffffffffffffffffffffffffffffffff166370a08231306040518263ffffffff1660e01b815260040161028d9190610b76565b602060405180830381865afa1580156102aa573d6000803e3d6000fd5b505050506040513d601f19601f820116820180604052508101906102ce9190610d8d565b101561030f576040517f08c379a000000000000000000000000000000000000000000000000000000000815260040161030690610e06565b60405180910390fd5b600260009054906101000a900473ffffffffffffffffffffffffffffffffffffffff1673ffffffffffffffffffffffffffffffffffffffff1663a9059cbb33836040518363ffffffff1660e01b815260040161036c929190610e26565b6020604051808303816000875af115801561038b573d6000803e3d6000fd5b505050506040513d601f19601f820116820180604052508101906103af9190610e87565b50600360009054906101000a900473ffffffffffffffffffffffffffffffffffffffff1673ffffffffffffffffffffffffffffffffffffffff166323b872dd3330856040518463ffffffff1660e01b815260040161040f93929190610eb4565b6020604051808303816000875af115801561042e573d6000803e3d6000fd5b505050506040513d601f19601f820116820180604052508101906104529190610e87565b503373ffffffffffffffffffffffffffffffffffffffff167f3ceffd410054fdaed44f598ff5c1fb450658778e2241892da4aa646979dee617838360405161049b929190610eeb565b60405180910390a25050565b6104af610950565b6000600360009054906101000a900473ffffffffffffffffffffffffffffffffffffffff1673ffffffffffffffffffffffffffffffffffffffff166370a08231306040518263ffffffff1660e01b815260040161050c9190610b76565b602060405180830381865afa158015610529573d6000803e3d6000fd5b505050506040513d601f19601f8201168201806040525081019061054d9190610d8d565b905060008111610592576040517f08c379a000000000000000000000000000000000000000000000000000000000815260040161058990610f60565b60405180910390fd5b600360009054906101000a900473ffffffffffffffffffffffffffffffffffffffff1673ffffffffffffffffffffffffffffffffffffffff1663a9059cbb6105d8610688565b836040518363ffffffff1660e01b81526004016105f6929190610e26565b6020604051808303816000875af1158015610615573d6000803e3d6000fd5b505050506040513d601f19601f820116820180604052508101906106399190610e87565b507f07a5f23a2ead1cc3a168a6d921932ef21c5efe0a62c5e2ecf65953bf4049c006816040516106699190610abc565b60405180910390a150565b61067c610950565b61068660006109d7565b565b60008060009054906101000a900473ffffffffffffffffffffffffffffffffffffffff16905090565b6106b9610950565b6000600260009054906101000a900473ffffffffffffffffffffffffffffffffffffffff1673ffffffffffffffffffffffffffffffffffffffff166370a08231306040518263ffffffff1660e01b81526004016107169190610b76565b602060405180830381865afa158015610733573d6000803e3d6000fd5b505050506040513d601f19601f820116820180604052508101906107579190610d8d565b90506000811161079c576040517f08c379a000000000000000000000000000000000000000000000000000000000815260040161079390610fcc565b60405180910390fd5b600260009054906101000a900473ffffffffffffffffffffffffffffffffffffffff1673ffffffffffffffffffffffffffffffffffffffff1663a9059cbb6107e2610688565b836040518363ffffffff1660e01b8152600401610800929190610e26565b6020604051808303816000875af115801561081f573d6000803e3d6000fd5b505050506040513d601f19601f820116820180604052508101906108439190610e87565b507fc7f7ea83e8ce56c891354de46a291dc1c4aeccfdecd7fb79ac0fb70308820168816040516108739190610abc565b60405180910390a150565b600360009054906101000a900473ffffffffffffffffffffffffffffffffffffffff1681565b6108ac610950565b600073ffffffffffffffffffffffffffffffffffffffff168173ffffffffffffffffffffffffffffffffffffffff160361091e5760006040517f1e4fbdf70000000000000000000000000000000000000000000000000000000081526004016109159190610b76565b60405180910390fd5b610927816109d7565b50565b600260009054906101000a900473ffffffffffffffffffffffffffffffffffffffff1681565b610958610a9b565b73ffffffffffffffffffffffffffffffffffffffff16610976610688565b73ffffffffffffffffffffffffffffffffffffffff16146109d557610999610a9b565b6040517f118cdaa70000000000000000000000000000000000000000000000000000000081526004016109cc9190610b76565b60405180910390fd5b565b60008060009054906101000a900473ffffffffffffffffffffffffffffffffffffffff169050816000806101000a81548173ffffffffffffffffffffffffffffffffffffffff021916908373ffffffffffffffffffffffffffffffffffffffff1602179055508173ffffffffffffffffffffffffffffffffffffffff168173ffffffffffffffffffffffffffffffffffffffff167f8be0079c531659141344cd1fd0a4f28419497f9722a3daafe3b4186f6b6457e060405160405180910390a35050565b600033905090565b6000819050919050565b610ab681610aa3565b82525050565b6000602082019050610ad16000830184610aad565b92915050565b600080fd5b610ae581610aa3565b8114610af057600080fd5b50565b600081359050610b0281610adc565b92915050565b600060208284031215610b1e57610b1d610ad7565b5b6000610b2c84828501610af3565b91505092915050565b600073ffffffffffffffffffffffffffffffffffffffff82169050919050565b6000610b6082610b35565b9050919050565b610b7081610b55565b82525050565b6000602082019050610b8b6000830184610b67565b92915050565b6000819050919050565b6000610bb6610bb1610bac84610b35565b610b91565b610b35565b9050919050565b6000610bc882610b9b565b9050919050565b6000610bda82610bbd565b9050919050565b610bea81610bcf565b82525050565b6000602082019050610c056000830184610be1565b92915050565b610c1481610b55565b8114610c1f57600080fd5b50565b600081359050610c3181610c0b565b92915050565b600060208284031215610c4d57610c4c610ad7565b5b6000610c5b84828501610c22565b91505092915050565b600082825260208201905092915050565b7f55534454416d6f756e74206d7573742062652067726561746572207468616e2060008201527f7a65726f00000000000000000000000000000000000000000000000000000000602082015250565b6000610cd1602483610c64565b9150610cdc82610c75565b604082019050919050565b60006020820190508181036000830152610d0081610cc4565b9050919050565b7f4e487b7100000000000000000000000000000000000000000000000000000000600052601160045260246000fd5b6000610d4182610aa3565b9150610d4c83610aa3565b9250828202610d5a81610aa3565b91508282048414831517610d7157610d70610d07565b5b5092915050565b600081519050610d8781610adc565b92915050565b600060208284031215610da357610da2610ad7565b5b6000610db184828501610d78565b91505092915050565b7f496e73756666696369656e7420746f6b656e7320696e20636f6e747261637400600082015250565b6000610df0601f83610c64565b9150610dfb82610dba565b602082019050919050565b60006020820190508181036000830152610e1f81610de3565b9050919050565b6000604082019050610e3b6000830185610b67565b610e486020830184610aad565b9392505050565b60008115159050919050565b610e6481610e4f565b8114610e6f57600080fd5b50565b600081519050610e8181610e5b565b92915050565b600060208284031215610e9d57610e9c610ad7565b5b6000610eab84828501610e72565b91505092915050565b6000606082019050610ec96000830186610b67565b610ed66020830185610b67565b610ee36040830184610aad565b949350505050565b6000604082019050610f006000830185610aad565b610f0d6020830184610aad565b9392505050565b7f496e73756666696369656e742055534454000000000000000000000000000000600082015250565b6000610f4a601183610c64565b9150610f5582610f14565b602082019050919050565b60006020820190508181036000830152610f7981610f3d565b9050919050565b7f4e6f20756e736f6c6420746f6b656e7320746f20776974686472617700000000600082015250565b6000610fb6601c83610c64565b9150610fc182610f80565b602082019050919050565b60006020820190508181036000830152610fe581610fa9565b905091905056fea2646970667358221220e8bfd66c5e3b30d03162e420d92e73cf6434a97d62d1d4ce0bda3fd8e25f709364736f6c63430008140033",
  "linkReferences": {},
  "deployedLinkReferences": {}
}